:2000000040C064C063C062C061C060C05FC05EC05DC00EC35BC07BC355C358C057C056C055
:2000200055C054C053C0000000003700340031000000000038003500320004040404040431
:20004000040402020202020203030303030302020301020408102040800102040810200134
:20006000020408102040804000000000000000000004050700000000000000000000000032
:200080002A0711241FBECFE5D4E0DEBFCDBF10E0A0E6B0E0EAEBFEE002C005900D92AC37FA
:2000A000B107D9F722E0ACE7B0E001C01D92A234B207E1F710E0C1E4D0E003C02197FE01FD
:2000C000F4D6C034D107D1F754D3F5C699CF8BE891E00197F1F7089590E0FC01E859FF4F7B
:2000E0003491FC01EF5AFF4F2491FC01E65CFF4FE491EE23E1F0332349F03530C9F03730FA
:20010000D1F0343019F48FB58F778FBDF0E0EE0FFF1FE05DFF4FA591B4918FB7F8946111E2
:200120000EC09C91E22FE095E923EC938FBF08958FB58F7DEACF85B58F7D85BDE7CFEC9104
:20014000E22BF3CFCF93DF9390E0FC01EF5AFF4F2491865C9F4FFC0184918823D1F090E085
:20016000880F991FFC01EA5DFF4FA591B491FC01E05DFF4FC591D49161110EC09FB7F894BE
:200180008C91E22FE0958E238C932881E223E8839FBFDF91CF9108958FB7F894EC91E22BAC
:2001A000EC938FBFF6CF3FB7F8948091A1019091A201A091A301B091A40122B708B600FE64
:2001C00005C02F3F19F00196A11DB11D3FBFBA2FA92F982F8827BC01CD01620F711D811D63
:2001E000911D42E0660F771F881F991F4A95D1F708958F929F92AF92BF92CF92DF92EF924A
:20020000FF924B015C01CFDF6B017C01CCDF6C197D098E099F09683E734081059105B0F300
:2002200021E0821A9108A108B10888EEC80E83E0D81EE11CF11C81149104A104B10431F7CB
:20024000FF90EF90DF90CF90BF90AF909F908F9008951F93CF93DF93182FC3E0D0E061E0E8
:20026000812F3ADF6EE170E080E090E0C2DF60E0812F32DF6EE170E080E090E0BADF2197E4
:2002800071F7DF91CF911F910895AF92BF92CF92DF92EF92FF920F931F93CF93DF936C01CE
:2002A0007B018B01040F151FEB015E01AE18BF08C017D10759F06991D601ED91FC910190B2
:2002C000F081E02DC6010995892B79F7C501DF91CF911F910F91FF90EF90DF90CF90BF9006
:2002E000AF900895FC01538D448D252F30E0842F90E0821B930B541710F0CF9608950197AD
:200300000895FC01918D828D981761F0A28DAE0FBF2FB11D5D968C91928D9F5F9F73928F0E
:2003200090E008958FEF9FEF0895FC01918D828D981731F0828DE80FF11D858D90E00895DA
:200340008FEF9FEF0895FC01918D228D892F90E0805C9F4F821B91098F739927089585EA33
:2003600091E0F1DF21E0892B09F420E0822F089580E090E0892B19F0F2DF811141CE0895A0
:20038000FC01A48DA80FB92FB11DA35ABF4F2C91848D90E001968F739927848FA689B7899E
:2003A0002C93A089B1898C9182748C93938D848D981306C00288F389E02D80818F7D808324
:2003C0000895EF92FF920F931F93CF93DF93EC0181E0888F9B8D8C8D981319C0E889F98929
:2003E000808185FF14C09FB7F894EE89FF896083E889F9898081827480839FBF81E090E0C4
:20040000DF91CF911F910F91FF90EF900895F62E0B8D10E00F5F1F4F0F731127E02E8C8DA8
:200420008E110BC00FB607FCFACFE889F989808185FFF5CFCE01A4DFF2CFEB8DEC0FFD2FD3
:20044000F11DE35AFF4FF0829FB7F8940B8FEA89FB8980818062D0CF682F85EA91E0B1CFA5
:20046000CF93DF93EC01888D8823B1F0AA89BB89E889F9898C9185FD03C0808186FD0CC03E
:200480000FB607FCF7CF8C9185FFF2CF808185FFEDCFCE0175DFEACFDF91CF9108958091D1
:2004A0009801909199010196909399018093980185E1D2CF20918B0030918C0080919601B0
:2004C000909197012032310511F4807F08952034310511F4807E08952038310511F4807C81
:2004E00008952115314009F48078089585EA91E02ADF892BD9F385EA91E003DF0895CF93FC
:20050000C82FF4DF803239F484E1A6DF8C2FA4DF80E1CF91A1CF80919801909199010196DD
:20052000909399018093980185E1F3CFDFDF803221F484E191DF80E18FCF80919801909146
:2005400099010196909399018093980185E1F4CF0F931F93CF93DF938C01C3E9D0E0CE01F8
:2005600083599040801791071CF4C0DF8993F7CFDF91CF911F910F9108958FB90000779BF8
:20058000FECF8FB108951F93CF93DF93162FD42FC22FF3DF812FF1DF8D2FEFDF8C2FDF91EB
:2005A000CF911F91EACFEF92FF920F931F93CF93DF93EC018B01CB01CBDF60E087E08CDD39
:2005C00083E9E82E80E0F82E0C0F1D1FC017D10771F0F70121917F014C2F6D2F80ECD3DF4D
:2005E0006DE270E080E090E004DE2196EFCF61E087E072DD80E1DF91CF911F910F91FF902E
:20060000EF900895CF93DF93D82FC92F60E087E063DD20E04D2F6C2F8CE4B5DF6EE170E04A
:2006200080E090E0E6DD61E087E0DF91CF9154CD1F920F920FB60F9211242F933F938F93EB
:200640009F93AF93BF9380919D0190919E01A0919F01B091A00130919C0123E0230F2D37BB
:2006600068F126E8230F0296A11DB11D20939C0180939D0190939E01A0939F01B093A00143
:200680008091A1019091A201A091A301B091A4010196A11DB11D8093A1019093A201A09357
:2006A000A301B093A401BF91AF919F918F913F912F910F900FBE0F901F9018950196A11D82
:2006C000B11DD4CF1F920F920FB60F9211242F933F934F935F936F937F938F939F93AF93AA
:2006E000BF93EF93FF9385EA91E04ADEFF91EF91BF91AF919F918F917F916F915F914F91BC
:200700003F912F910F900FBE0F901F9018951F920F920FB60F9211242F938F939F93EF935D
:20072000FF93E091B501F091B6018081E091BB01F091BC0182FD1BC090818091BE018F5F33
:200740008F732091BF01821741F0E091BE01F0E0EB55FE4F958F8093BE01FF91EF919F9199
:200760008F912F910F900FBE0F901F9018958081F4CF789483B7836083BF89B7816089BF9A
:2007800092E09EBD8EB581608EBD8FB581608FBD85B5846085BD85B5806485BD87E886B93E
:2007A0001AB8E091B501F091B6019083E091B101F091B2011082E091B301F091B40180E150
:2007C00080831092BD01E091B901F091BA0186E88083E091B701F091B80180818869808386
:2007E000E091B701F091B80180818F7D808361E087E0A8DC87E090E02CDD61E088E0A2DC53
:2008000088E090E026DD61E089E09CDC89E090E020DD01E7202E00E0302E84E4482E80E053
:20082000582E9BE5692E90E0792E20E0A22E20E0B22E88248394912C80919A0190919B016B
:2008400061E0892B09F460E087E046DC809198019091990161E0892B09F460E088E03CDCC6
:200860002FB7F89480919D0190919E01A0919F01B091A0012FBF40917C0050917D0060915A
:200880007E0070917F008C019D01041B150B260B370BB901A801483251056105710508F175
:2008A00080937C0090937D00A0937E00B0937F008091610090916000813C20F0919590938D
:2008C000600002C08032D0F3C0916000C80FC093610061E089E036DCC11127C060E089E027
:2008E000FBDB85EA91E02FDD892B09F400C2FEDD813509F45EC208F0C5C0813409F43DC1E8
:20090000B0F5803309F424C1813309F427C1803209F091C2809198019091990101969093E7
:2009200099018093980185E1DAC1CF3F11F461E0D6CFF1018491853059F0873081F0843096
:2009400099F48FB580688FBDD0E0DBBDCABDC9CF8FB580628FBDD0E0D9BDC8BDC2CF85B523
:20096000806285BDC3BDBDCFC7FDE1CFB7CF853409F418C1803509F419C1823409F05BC266
:2009800084E190E0E5DD2091930020938000809194008093810080919500809382008091C4
:2009A000960080938300809197008093840080919800809385008091990080938600809137
:2009C0009A008093870080919B008093880080919D0090E0982F882730919E00830F911D69
:2009E00090938A008093890080919F0090E0982F88273091A000830F911D90938C008093B5
:200A00008B008091A10090E0982F88273091A200830F911D90938E0080938D008091A3000B
:200A200090E0B0E0A0E0BA2FA92F982F88273091A400830F911DA11DB11DDC019927882782
:200A40004091A50050E0542F4427052E000C660B770B840F951FA61FB71F3091A600830FF5
:200A6000911DA11DB11D80938F0090939000A0939100B093920081E0203E08F480E0809320
:200A800095016AC0813609F4FAC0B0F4863509F483C1803609F4F2C0853509F0CCC126DDE0
:200AA000C82F24DD90E0982F88278C0F911D909397018093960150C0843709F422C1853743
:200AC00009F4A0C1843609F0B6C110DDC82FD0E0DC2FCC270BDDC80FD11D08DD863409F0B7
:200AE000D3C0CE0135DD02DD803209F013CF84E1B3DCE0DC6C0133E9E32E30E0F32EC701D3
:200B0000835990408C179D070CF0BBC0D3DC8C159D0521F0C60176DDCDDC6C010091960110
:200B200010919701F7012081402F612F80E42BDDF7012181402F612F88E425DD0F5F1F4F95
:200B40001093970100939601F2E0EF0EF11CD7CF1092990110929801E9DCC9C0C7DC803294
:200B600009F0D8CE84E178DC47E050E064E770E085EA91E08ADB80E1B2C0B8DC813871F065
:200B800020F4803841F080E007C0823849F08339D1F783E501C082E0B2DCA9C081E0FCCF0C
:200BA00082E1FACF85E090E0D3DCD6CF80919A0190919B01892B81F6609195018AE08CDAF5
:200BC00061E08AE0BFDACFB7F8948091940181111DC0F2018491F3019491E82FF0E0EE0FA5
:200BE000FF1FEA5DFF4FA591B4918C91982319F461E08AE071DA61E08AE0A4DA6C9A6E9AB5
:200C000061E08DE09FDA61E08BE09CDA809194018F5F80939401CFBF80919301882351F030
:200C20008FB7F89490919301913021F49BB79BB79BBF8FBF83E58DB91EB860E08DE04CDAB4
:200C400064E170E080E090E0D4DAC091950161E06C278AE041DA3BDA6C2F8AE03DDA62E3CB
:200C600070E080E090E0C5DA20E040E063E58CEA8ADC90929B0180929A016ECF37DC36DCA4
:200C80006BCFC601BFDC77CF853409F083C080918D0090918E008C179D0788F00091960149
:200CA00010919701000F111FC132D105D0F060E270E0C80178DC005E1F4FA097F5CF8091AC
:200CC00098019091990101969093990180939801C1E10CDC803251F484E1BEDB8C2FBCDBEF
:200CE00006C0BE01C8015FDCC0E1F3CFD8DBA114B10409F4A1CD33DB882309F49DCD80D907
:200D00009BCDF4DB082FF2DBF82EF0DBD82FEEDB803211F0C4DBEBCF10E0102F00270F0D59
:200D2000111D84E199DBD634F9F4F12CE12CE016F1060CF020CFC0919601D091970120E0D2
:200D40004C2F6D2F80E21FDC87DB20E04C2F6D2F88E219DC81DB2196D0939701C09396014F
:200D600022E0E20EF11CE3CFD534A1F4C0919601D0919701CC0FDD1F0C0F1D1F0C171D07CE
:200D800009F4F9CE2FEF4C2F6D2F80EAFCDB64DB2196F4CF81E1A3CF84E090E0D9DB209153
:200DA0009600409195006091940080919300EBDBF3CE10929901109298019FB7F89480911D
:200DC0009401882319F081508093940180919401811103C06E98109293019FBF60E08BE011
:200DE000B1D960E08DE0AED96091950181E068278AE072D960E08AE0A5D910929B01109201
:200E00009A01AACE73DB803209F084CD84E124DB20E040E060E080E3B6DB1EDB20E041E0A3
:200E200060E080E3B0DB18DB20E042E060E080E3AADB12DBA0CE80919801909199010196F0
:200E4000909399018093980151DB803209F06BCD82E145CFE5EAF1E01382128288EE93E0F1
:200E6000A0E0B0E084839583A683B78386E690E09183808380E490E09587848729E230E0D7
:200E8000378726872BE230E0318B208B2AE230E0338B228B958B848B8CE290E0978B868B9C
:200EA000118E128E138E148E0895EE0FFF1F0590F491E02D0994F894FFCF08800000000052
:160EC000E101450172013002A3018101950141565220495350009E
:00000001FF
